:100000000C9483000C94B4000C94B4000C94B400D1
:100010000C94B4000C94B4000C94B4000C94B40090
:100020000C94B4000C94B4000C94B4000C94B40080
:100030000C94B4000C94B4000C94B4000C94B40070
:100040000C94B4000C94B4000C94B4000C94B40060
:100050000C94B4000C94B4000C94B4000C94C00242
:100060000C94B4000C948A020C9460020C94B400BA
:100070000C94B4000C94B4000C94B4000C94B40030
:100080000C94B4000C94B4000C94B4000C94B40020
:100090000C94B4000C94B4000C94B4000C94B40010
:1000A0000C94B4000C94B4000C94B4000C94B40000
:1000B0000C94B4000C94B4000C94B4000C94B400F0
:1000C0000C94B4000C94B4000C94B4000C94B400E0
:1000D0000C94B4000C94B4000C94B4000C94B400D0
:1000E0000C94B4000C94E3000C944C010C94AA04FE
:1000F0000C9499010C94B6000C9406010C94F20037
:100100000C941401AA0411241FBECFEFD1E2DEBF6C
:10011000CDBF00E00CBF12E0A0E0B2E0EAE9FDE0F4
:1001200000E00BBF02C007900D92AE32B107D9F7C5
:1001300022E0AEE2B2E001C01D92A83DB207E1F7B5
:1001400010E0C3E8D0E000E006C021970109802F4D
:10015000FE010E94C306C238D10780E00807A9F754
:100160000E940A030C94CB060C940000AF92BF923D
:10017000CF92DF92EF92FF920F931F93CF93DF9373
:100180006C017B018B01040F151FEB015E01AE18A2
:10019000BF08C017D10759F06991D601ED91FC91C4
:1001A0000190F081E02DC6011995892B79F7C501E1
:1001B000DF91CF911F910F91FF90EF90DF90CF9043
:1001C000BF90AF900895FC01538D448D252F30E0F2
:1001D000842F90E0821B930B541710F0CF96089554
:1001E00001970895FC01918D828D981761F0A28D81
:1001F000AE0FBF2FB11D5D968C91928D9F5F9F7347
:10020000928F90E008958FEF9FEF0895FC01918DFC
:10021000828D981731F0828DE80FF11D858D90E069
:1002200008958FEF9FEF0895FC01918D228D892F06
:1002300090E0805C9F4F821B91098F7399270895EE
:100240008BE392E00E94140121E0892B09F420E065
:10025000822F0895FC01A48DA80FB92FB11DA35AB8
:10026000BF4F2C91848D90E001968F739927848FD6
:10027000A689B7892C93A089B1898C9183708064F9
:100280008C93938D848D981306C00288F389E02D9A
:1002900080818F7D80830895EF92FF920F931F934B
:1002A000CF93DF93EC0181E0888F9B8D8C8D981329
:1002B0001AC0E889F989808185FF15C09FB7F89435
:1002C000EE89FF896083E889F98980818370806481
:1002D00080839FBF81E090E0DF91CF911F910F91CC
:1002E000FF90EF900895F62E0B8D10E00F5F1F4FDB
:1002F0000F731127E02E8C8D8E110CC00FB607FCEA
:10030000FACFE889F989808185FFF5CFCE010E9477
:100310002A01F1CFEB8DEC0FFD2FF11DE35AFF4FBA
:10032000F0829FB7F8940B8FEA89FB898081806205
:10033000CFCFCF93DF93EC01888D8823B9F0AA89C2
:10034000BB89E889F9898C9185FD03C0808186FD90
:100350000DC00FB607FCF7CF8C9185FFF2CF8081DF
:1003600085FFEDCFCE010E942A01E9CFDF91CF9129
:10037000089580E090E0892B29F00E9420018111EE
:100380000E94000080E090E0892B49F080E090E03E
:10039000892B29F00E94000081110E94000080E05A
:1003A00090E0892B49F080E090E0892B29F00E94B1
:1003B000000081110E94000080E090E0892B49F04C
:1003C00080E090E0892B29F00E94000081110C94BC
:1003D000000008953FB7F894809133029091340261
:1003E000A0913502B091360226B5A89B05C02F3FDB
:1003F00019F00196A11DB11D3FBFBA2FA92F982F4B
:100400008827BC01CD01620F711D811D911D42E045
:10041000660F771F881F991F4A95D1F70895FC0131
:1004200001900020E9F73197AF01481B590BBC013F
:100430008BE392E00C94B6008F929F92AF92BF92A2
:100440000F931F93CF93DF93CDB7DEB7A1970FB66E
:10045000F894DEBF0FBECDBF19A2423008F44AE0C7
:100460008E010F5D1F4F842E912CB12CA12CA50164
:1004700094010E94A106E62FB901CA01EA30F4F402
:10048000E05DD801EE938D01232B242B252B79F7EA
:1004900090E080E0109719F0CD010E940F02A19624
:1004A0000FB6F894DEBF0FBECDBFDF91CF911F9185
:1004B0000F91BF90AF909F908F900895E95CE1CF2E
:1004C0001F920F920FB60F9211240BB60F922F931B
:1004D0003F934F935F936F937F938F939F93AF93CC
:1004E000BF93EF93FF938BE392E00E942A01FF9169
:1004F000EF91BF91AF919F918F917F916F915F919C
:100500004F913F912F910F900BBE0F900FBE0F9008
:100510001F9018951F920F920FB60F9211240BB6D1
:100520000F922F938F939F93EF93FF93E0914B0242
:10053000F0914C028081E0915102F091520282FDD3
:100540001DC09081809154028F5F8F73209155025E
:10055000821741F0E0915402F0E0E55CFD4F958F89
:1005600080935402FF91EF919F918F912F910F9063
:100570000BBE0F900FBE0F901F9018958081F2CF89
:100580001F920F920FB60F9211242F933F938F93C8
:100590009F93AF93BF9380912F0290913002A091CF
:1005A0003102B091320230912E0223E0230F2D3719
:1005B00058F50196A11DB11D20932E0280932F02A4
:1005C00090933002A0933102B093320280913302B3
:1005D00090913402A0913502B09136020196A11D8E
:1005E000B11D8093330290933402A0933502B093EF
:1005F0003602BF91AF919F918F913F912F910F90B4
:100600000FBE0F901F90189526E8230F0296A11D8C
:10061000B11DD2CF789484B5826084BD84B58160E9
:1006200084BD85B5826085BD85B5816085BD8091BD
:100630006E00816080936E00109281008091810035
:10064000826080938100809181008160809381002D
:10065000809180008160809380008091B1008460EF
:100660008093B1008091B00081608093B000809150
:1006700091008260809391008091910081608093CD
:100680009100809190008160809390008091A10002
:1006900082608093A1008091A10081608093A1007D
:1006A0008091A00081608093A000809121018260F0
:1006B00080932101809121018160809321018091AB
:1006C000200181608093200180917A008460809372
:1006D0007A0080917A00826080937A0080917A001B
:1006E000816080937A0080917A00806880937A009C
:1006F0001092C100E0914B02F0914C0282E08083A5
:10070000E0914702F09148021082E0914902F09195
:100710004A028FEC808310925302E0914F02F091D5
:10072000500286E08083E0914D02F0914E0280817C
:1007300080618083E0914D02F0914E02808188605B
:100740008083E0914D02F0914E0280818068808329
:10075000E0914D02F0914E0280818F7D8083C0E454
:1007600080917B00877F80937B00C0937C00809189
:100770007A00806480937A0080917A0086FDFCCFB5
:100780008091780060917900762F682F072E000CF9
:10079000880B990B0E947A05609337027093380298
:1007A0008093390290933A0282E192E00E940F0214
:1007B000C0903702D0903802E0903902F0903A02AF
:1007C000A7019601C701B6010E949C06882381F10A
:1007D0008FE192E00E940F028BE292E00E940F02F2
:1007E0000E94EA016B017C0188EE882E83E0982E3E
:1007F000A12CB12C0E94EA016C197D098E099F0978
:10080000683E734081059105A8F321E0821A9108A2
:10081000A108B10888EEC80E83E0D81EE11CF11CC7
:1008200081149104A104B10429F70E94B90198CF61
:1008300046015701E894B7F82FEF3FEF4FE75FE726
:10084000C501B4010E949C0681110DC02FEF3FEF3E
:100850004FE75FE7C501B4010E94440518161CF478
:1008600083E292E0B7CF2FEF3FEF4FE75FE4C7019E
:10087000B6010E942A0618161CF487E292E0AACF5D
:100880002FEF3FEF4FE75FECC701B6010E94440531
:1008900087FDF3CF20E030E0A901C701B6010E9437
:1008A000440587FF09C06DE28BE392E00E944C0192
:1008B000F7FAF094F7F8F0942AE037ED43EA5BE3B7
:1008C000C701B6010E94D8044B015C010E94490592
:1008D0006B017C010E9478059B01AC01C501B4014C
:1008E0000E94D7044B015C014AE0C701B6010E9497
:1008F0001C026EE28BE392E00E944C0120E030E0AB
:1009000040E251E4C501B4010E942F064B015C0195
:100910000E9449056B01F12CE12C4AE0C701B601A8
:100920000E941C02C701B6010E9478059B01AC0120
:10093000C501B4010E94D70420E030E040E251E458
:100940000E942F060E94490590E080E04AE00E9444
:100950001C0242CFEBE3F2E01382128288EE93E0B6
:10096000A0E0B0E084839583A683B78384E092E01F
:100970009183808385EC90E09587848784EC90E078
:100980009787868780EC90E0918B808B81EC90E05C
:10099000938B828B82EC90E0958B848B86EC90E03D
:1009A000978B868B118E128E138E148E089550584D
:1009B000BB27AA270E94EF040C94F0050E94E205D1
:1009C00038F00E94E90520F039F49F3F19F426F42D
:1009D0000C94DF050EF4E095E7FB0C94D905E92FA4
:1009E0000E94010658F3BA17620773078407950738
:1009F00020F079F4A6F50C9423060EF4E0950B2E66
:100A0000BA2FA02D0B01B90190010C01CA01A00160
:100A10001124FF27591B99F0593F50F4503E68F1BB
:100A20001A16F040A22F232F342F4427585FF3CFFC
:100A3000469537952795A795F0405395C9F77EF4CD
:100A40001F16BA0B620B730B840BBAF09150A1F016
:100A5000FF0FBB1F661F771F881FC2F70EC0BA0F9C
:100A6000621F731F841F48F4879577956795B79524
:100A7000F7959E3F08F0B0CF9395880F08F099271F
:100A8000EE0F9795879508950E94B50508F481E0CB
:100A900008950E94090688F09F5798F0B92F99276A
:100AA000B751B0F0E1F0660F771F881F991F1AF059
:100AB000BA95C9F714C0B13091F00E942306B1E095
:100AC00008950C942306672F782F8827B85F39F094
:100AD000B93FCCF3869577956795B395D9F73EF4F2
:100AE00090958095709561957F4F8F4F9F4F08959A
:100AF000E89409C097FB3EF49095809570956195B8
:100B00007F4F8F4F9F4F9923A9F0F92F96E9BB276D
:100B10009395F695879577956795B795F111F8CFE9
:100B2000FAF4BB0F11F460FF1BC06F5F7F4F8F4F54
:100B30009F4F16C0882311F096E911C0772321F04A
:100B40009EE8872F762F05C0662371F096E8862FE2
:100B500070E060E02AF09A95660F771F881FDAF739
:100B6000880F9695879597F90895990F0008550F66
:100B7000AA0BE0E8FEEF16161706E807F907C0F023
:100B800012161306E407F50798F0621B730B840B2B
:100B9000950B39F40A2661F0232B242B252B21F405
:100BA00008950A2609F4A140A6958FEF811D811DA5
:100BB000089597F99F6780E870E060E008959FEFDF
:100BC00080EC089500240A941616170618060906E4
:100BD000089500240A9412161306140605060895B3
:100BE000092E0394000C11F4882352F0BB0F40F43B
:100BF000BF2B11F460FF04C06F5F7F4F8F4F9F4F7B
:100C0000089557FD9058440F551F59F05F3F71F0FC
:100C10004795880F97FB991F61F09F3F79F0879563
:100C20000895121613061406551FF2CF4695F1DFEC
:100C300008C0161617061806991FF1CF869571057C
:100C4000610508940895E894BB2766277727CB01B0
:100C500097F908950E94B50508F48FEF08950E9452
:100C600042060C94F0050E94E20538F00E94E90566
:100C700020F0952311F00C94D9050C94DF05112474
:100C80000C9424060E94010670F3959FC1F3950F02
:100C900050E0551F629FF001729FBB27F00DB11D00
:100CA000639FAA27F00DB11DAA1F649F6627B00D90
:100CB000A11D661F829F2227B00DA11D621F739F79
:100CC000B00DA11D621F839FA00D611D221F749F87
:100CD0003327A00D611D231F849F600D211D822FCE
:100CE000762F6A2F11249F5750409AF0F1F08823F5
:100CF0004AF0EE0FFF1FBB1F661F771F881F915022
:100D00005040A9F79E3F510580F00C94D9050C94F2
:100D100024065F3FE4F3983ED4F386957795679574
:100D2000B795F795E7959F5FC1F7FE2B880F911D4B
:100D30009695879597F908950E94B505880B990BAC
:100D40000895A1E21A2EAA1BBB1BFD010DC0AA1F0C
:100D5000BB1FEE1FFF1FA217B307E407F50720F024
:100D6000A21BB30BE40BF50B661F771F881F991F9F
:100D70001A9469F760957095809590959B01AC01E8
:100D8000BD01CF010895EE0FFF1F881F8BBF079095
:0A0D9000F691E02D1994F894FFCFBE
:100D9A00000000004C01B600E30099011401F200C2
:100DAA00060156616C6F72204C4452203D20006E41
:0E0DBA00616E00696E66006F7666000D0A00BD
:00000001FF
