:100000000C943B010C946C010C946C010C946C01ED
:100010000C946C010C946C010C946C010C946C01AC
:100020000C946C010C946C010C946C010C946C019C
:100030000C946C010C946C010C946C010C946C018C
:100040000C946C010C946C010C946C010C946C017C
:100050000C946C010C946C010C946C010C94D30501
:100060000C946C010C949D050C9473050C946C011C
:100070000C946C010C946C010C946C010C946C014C
:100080000C946C010C946C010C946C010C946C013C
:100090000C946C010C946C010C946C010C946C012C
:1000A0000C946C010C946C010C946C010C946C011C
:1000B0000C946C010C946C010C946C010C946C010C
:1000C0000C946C010C946C010C946C010C946C01FC
:1000D0000C946C010C946C010C946C010C946C01EC
:1000E0000C946C010C9485030C946E010C94280301
:1000F0000C947D010C949F010C9462060C94D70221
:100100000C94CD010C9416030C9410030C94E9028A
:100110000C94D9040C94F5020C9484030C94F8020A
:100120000C9424030C940C030C9408030C94D2023A
:100130000C941A030C9402030C94ED020C94FE022E
:100140000C9491010C941A020C941E030C94F1026D
:100150000C94750200002100240027002A002D00C5
:100160003000330001010000040107010A01000012
:100170002200250028002B002E003100340002014F
:100180000000050108010B0100000A0B02090C0D1B
:100190000E0807030401000000000000000000003A
:1001A000000000000000000000000000000000004F
:1001B000000000001211100000000000000000000C
:1001C000000000000000000000000000000000002F
:1001D00020002300260029002C002F0032000001FF
:1001E00000000301060109010505050507050808CA
:1001F0000808020202020A0A0808040404040101B1
:1002000001010101010103030303030303030407C5
:1002100007070C0C0C0C0C0C0C0C0202020206065C
:100220000606060606060B0B0B0B0B0B0B0B01024F
:1002300010202008081020401020408002010201F8
:1002400008040201010204081020408080402010B0
:100250000804020180040201804020100804020109
:100260000804020101020408102040800102040871
:1002700010204080620611241FBECFEFD1E2DEBF06
:10028000CDBF00E00CBF12E0A0E0B2E0E0EDF2E193
:1002900000E00BBF02C007900D92A634B107D9F75A
:1002A00023E0A6E4B2E001C01D92A830B207E1F756
:1002B00011E0CBE3D1E000E006C021970109802FD7
:1002C000FE010E945E09CA33D10780E00807A9F742
:1002D0000E94AC060C9466090C940000FC01538D3E
:1002E000448D252F30E0842F90E0821B930B541710
:1002F00010F0CF96089501970895FC01918D828D9D
:10030000981761F0A28DAE0FBF2FB11D5D968C9135
:10031000928D9F5F9F73928F90E008958FEF9FEF74
:100320000895FC01918D828D981731F0828DE80F30
:10033000F11D858D90E008958FEF9FEF0895FC01EA
:10034000918D228D892F90E0805C9F4F821B9109B7
:100350008F7399270895FC01A48DA80FB92FB11DA3
:10036000A35ABF4F2C91848D90E001968F739927EB
:10037000848FA689B7892C93A089B1898C918370C9
:1003800080648C93938D848D981306C00288F389C2
:10039000E02D80818F7D80830895EF92FF920F93EF
:1003A0001F93CF93DF93EC0181E0888F9B8D8C8D21
:1003B00098131AC0E889F989808185FF15C09FB715
:1003C000F894EE89FF896083E889F98980818370D8
:1003D000806480839FBF81E090E0DF91CF911F9187
:1003E0000F91FF90EF900895F62E0B8D10E00F5FA8
:1003F0001F4F0F731127E02E8C8D8E110CC00FB67E
:1004000007FCFACFE889F989808185FFF5CFCE0115
:100410000E94AB01F1CFEB8DEC0FFD2FF11DE35AE4
:10042000FF4FF0829FB7F8940B8FEA89FB89808198
:100430008062CFCFCF93DF93EC01888D8823B9F012
:10044000AA89BB89E889F9898C9185FD03C08081DF
:1004500086FD0DC00FB607FCF7CF8C9185FFF2CF5C
:10046000808185FFEDCFCE010E94AB01E9CFDF9106
:10047000CF91089583E592E00E949F0121E0892BAE
:1004800009F420E0822F089580E090E0892B29F084
:100490000E943A0281110E94000080E090E0892BC6
:1004A00049F080E090E0892B29F00E940000811142
:1004B0000E94000080E090E0892B49F080E090E00D
:1004C000892B29F00E94000081110E94000080E029
:1004D00090E0892B49F080E090E0892B29F00E9480
:1004E000000081110C9400000895AF92BF92CF924A
:1004F000DF92EF92FF920F931F93CF93DF936C01E4
:100500007B018B01040F151FEB015E01AE18BF08C4
:10051000C017D10759F06991D601ED91FC91019076
:10052000F081E02DC6011995892B79F7C501DF917E
:10053000CF911F910F91FF90EF90DF90CF90BF90E0
:10054000AF900895282F30E0F901E857FE4F9491BD
:10055000F901E25DFD4F449128513E4FF90124918C
:10056000222309F435C0992311F191509231F8F406
:10057000E92FF0E08827E054FD4F8F4F0C945E097F
:10058000F102F502D202E902ED02D702F802FE0200
:10059000020308030C03100316031A03D7021E03F9
:1005A00024032803809180008F7780938000E22FBE
:1005B000F0E0EE0FFF1FE259FE4FA591B4918FB707
:1005C000F894EC91611148C040954E234C938FBF35
:1005D0000895809180008F7DE8CF80918000877F93
:1005E000E4CF84B58F7784BDE2CF84B58F7DFBCF18
:1005F0008091B0008F778093B000D9CF8091B00008
:100600008F7DF9CF809190008F7780939000CFCF2E
:10061000809190008F7DF9CF80919000877FF5CFFA
:100620008091A0008F778093A000C1CF8091A0001F
:100630008F7DF9CF8091A000877FF5CF8091200139
:100640008F7780932001B3CF809120018F7DF9CFE8
:1006500080912001877FF5CF4E2BB8CFCF93DF93CA
:1006600090E0FC01E25DFD4F249188519E4FFC011A
:1006700084918823D1F090E0880F991FFC01EC5AF7
:10068000FE4FA591B491FC01E259FE4FC591D49162
:1006900061110EC09FB7F8948C91E22FE0958E23E4
:1006A0008C932881E223E8839FBFDF91CF91089547
:1006B0008FB7F894EC91E22BEC938FBFF6CF3FB756
:1006C000F8948091470290914802A0914902B0911C
:1006D0004A0226B5A89B05C02F3F19F00196A11D1F
:1006E000B11D3FBFBA2FA92F982F8827BC01CD017C
:1006F000620F711D811D911D42E0660F771F881FDB
:10070000991F4A95D1F70895089590E080E00895E3
:10071000CF93DF93EC0160E08E810E94A20261E042
:100720008E810E94A20260E08E810E94A2028BE86C
:1007300091E00197F1F7DF91CF910895CF92DF9289
:10074000EF92FF920F931F93CF93DF936C017C0185
:1007500087E0E80EF11CD0E0C0E0062F10E0B80101
:100760000C2E02C0759567950A94E2F76170F70147
:1007700081917F010E94A2022196C430D10579F7B0
:10078000C601DF91CF911F910F91FF90EF90DF9005
:10079000CF900C948803CF92DF92EF92FF920F9349
:1007A0001F93CF93DF93EC01F62E642F8C810E9470
:1007B000A2028D818F3F19F060E00E94A2020F2DEE
:1007C00010E08F8584FF25C06E0187E0C80ED11C24
:1007D000F12CE12CB8010E2C02C0759567950A9496
:1007E000E2F76170F60181916F010E94A202FFEFB2
:1007F000EF1AFF0A88E0E816F10461F7CE01DF91F5
:10080000CF911F910F91FF90EF90DF90CF900C94BC
:100810008803B80184E0759567958A95E1F7CE0164
:100820000E949E036F2DCE01DF91CF911F910F91FA
:10083000FF90EF90DF90CF900C949E0340E0682FE4
:1008400080EF92E00C94CB03CF93DF93823029F4B6
:100850009091FF0298609093FF028093030310929F
:10086000040380E48093050380E18093060380E520
:100870008093070361E08091F4020E942E0380912F
:10088000F5028F3F19F061E00E942E0361E0809134
:10089000F6020E942E03C0EFD2E09E01205F32409C
:1008A0008091FF0284FD0BC084E090E02196281720
:1008B000390744F461E08E810E942E03EECF88E078
:1008C00090E0F4CF8BE39DE00197F1F760E0809139
:1008D000F4020E94A20260E08091F6020E94A2024D
:1008E0008091F5028F3F19F060E00E94A202809192
:1008F000FF0284FD39C063E080EF92E00E949E0316
:10090000CBE4D6E4CE010197F1F763E080EF92E00B
:100910000E949E032197F1F763E080EF92E00E942E
:100920009E0383E592E00197F1F762E080EF92E0A9
:100930000E949E038091FF0280620E941E0484E058
:10094000809300038CE00E941E0481E00E941E043C
:100950008BE39FE10197F1F782E08093010386E04A
:10096000DF91CF910C941E0480620E941E048BE4E0
:1009700096E40197F1F78091FF0280620E941E04C5
:1009800083E592E00197F1F78091FF0280620E9477
:100990001E04D0CF90910303691710F06FEF690F19
:1009A000E62FF0E0E051FD4F9489890F80680C94A8
:1009B0001E0441E00E94CB0381E090E00895FB011A
:1009C00001900020E9F73197AF01461B570BDC017E
:1009D000ED91FC910280F381E02D19944F925F928A
:1009E0006F927F92AF92BF92CF92DF92EF92FF927F
:1009F0000F931F93CF93DF93CDB7DEB7A1970FB6B9
:100A0000F894DEBF0FBECDBF5C016A017B01F7FE2B
:100A100047C0DC01ED91FC910190F081E02D6DE289
:100A200019958C0122273327A9012C193D094E095C
:100A30005F0919A2FE01B1967F019AE0492E512C5F
:100A4000612C712CCA01B901A30192010E943C09D9
:100A5000605DD7016E937D0121153105410551057A
:100A600089F790E080E0109721F0BD01C5010E9458
:100A7000DF04800F911FA1960FB6F894DEBF0FBE62
:100A8000CDBFDF91CF911F910F91FF90EF90DF903D
:100A9000CF90BF90AF907F906F905F904F900895F0
:100AA000AB01960119A28E010F5D1F4F8AE0C82E7F
:100AB000D12CE12CF12CCA01B901A70196010E94A9
:100AC0003C09605DF80162938F01211531054105F4
:100AD000510589F790E080E0309769F2BF01C501C8
:100AE0000E94DF04C8CF1F920F920FB60F921124FD
:100AF0000BB60F922F933F934F935F936F937F9318
:100B00008F939F93AF93BF93EF93FF9383E592E00F
:100B10000E94AB01FF91EF91BF91AF919F918F9197
:100B20007F916F915F914F913F912F910F900BBEED
:100B30000F900FBE0F901F9018951F920F920FB637
:100B40000F9211240BB60F922F938F939F93EF93D5
:100B5000FF93E0916302F09164028081E091690269
:100B6000F0916A0282FD1DC0908180916C028F5FBE
:100B70008F7320916D02821741F0E0916C02F0E0DA
:100B8000ED5AFD4F958F80936C02FF91EF919F91ED
:100B90008F912F910F900BBE0F900FBE0F901F9053
:100BA00018958081F2CF1F920F920FB60F921124E9
:100BB0002F933F938F939F93AF93BF9380914B025B
:100BC00090914C02A0914D02B0914E02309146029C
:100BD00023E0230F2D3758F50196A11DB11D209359
:100BE000460280934B0290934C02A0934D02B09327
:100BF0004E028091470290914802A0914902B09123
:100C00004A020196A11DB11D8093470290934802AC
:100C1000A0934902B0934A02BF91AF919F918F91E7
:100C20003F912F910F900FBE0F901F90189526E8BF
:100C3000230F0296A11DB11DD2CFCF92DF92EF926A
:100C4000FF920F931F93E82FF92F05C00150110950
:100C50002109310961F1908196239417B9F305C0F8
:100C6000015011092109310911F190819623941342
:100C7000F7CFC12CD12CE12CF12C0AC08FEFC81A70
:100C8000D80AE80AF80A0C151D052E053F0579F06B
:100C900080818623841791F36C2D7D2D8E2D9F2DC1
:100CA0001F910F91FF90EF90DF90CF90089560E03B
:100CB00070E080E090E01F910F91FF90EF90DF9047
:100CC000CF900895E3E5F2E01382128288EE93E07C
:100CD000A0E0B0E084839583A683B7838CE092E0A4
:100CE0009183808385EC90E09587848784EC90E005
:100CF0009787868780EC90E0918B808B81EC90E0E9
:100D0000938B828B82EC90E0958B848B86EC90E0C9
:100D1000978B868B118E128E138E148EE0EFF2E07D
:100D2000138212828EE192E09183808386E1848334
:100D30008FEF858387E1868388E1878389E18087D8
:100D40008AE181878BE18287138614861586168651
:100D5000178681E00C942404789484B5826084BD65
:100D600084B5816084BD85B5826085BD85B58160AF
:100D700085BD80916E00816080936E00109281002D
:100D800080918100826080938100809181008160E8
:100D900080938100809180008160809380008091A9
:100DA000B10084608093B1008091B0008160809335
:100DB000B0008091910082608093910080919100B9
:100DC0008160809391008091900081608093900079
:100DD0008091A10082608093A1008091A100816038
:100DE0008093A1008091A00081608093A0008091F9
:100DF0002101826080932101809121018160809393
:100E000021018091200181608093200180917A00EE
:100E1000846080937A0080917A00826080937A0067
:100E200080917A00816080937A0080917A00806856
:100E300080937A001092C10082E00E94240481E035
:100E40000E941E048BE39FE10197F1F760E080E0D0
:100E50000E94CA0466E272E080EF92E00E94DF0422
:100E600080E40E941E04C0E0D2E008E012E0699134
:100E700080EF92E00E94D9040C171D07C1F761E0D2
:100E800084E30E942E0360E085E30E942E0328EE97
:100E9000422E23E0522E612C712C3FE0232E312C68
:100EA000C3E2D0E061E080E00E94CA042FB7F8946A
:100EB00060914B0270914C0280914D0290914E02D4
:100EC0002FBFA30192010E943C09A901330F660BB9
:100ED000770B80EF92E00E94EE0461E089E00E94CF
:100EE000CA0460E080EF92E00E94D90460E084E3ED
:100EF0000E94A202C1010197F1F761E084E30E9420
:100F0000A202CE010197F1F7E3E6F2E06491EDE190
:100F1000F2E08491E82FF0E0EE0FFF1FE253FE4F66
:100F20008591949100E412E42FE030E0462F0E9476
:100F30001D06611571058105910529F06F5F7F4FD1
:100F40008F4F9F4F9F700E94430826E933E44BE880
:100F50005CE30E94A7080E940B0860934F02709305
:100F60005002809351029093520263E372E083E552
:100F700092E00E94DF0440914F0250915002609134
:100F800051027091520283E592E00E94EE046FE3F9
:100F900072E083E592E00E94DF0462E472E083E5A0
:100FA00092E00E94DF0461E08CE00E94CA0440915C
:100FB0004F0250915002609151027091520280EFA5
:100FC00092E00E94EE040E945F034B015C0184EFFB
:100FD000C82EDD24D394E12CF12C0E945F03681904
:100FE00079098A099B09683E734081059105A8F338
:100FF000F1E0CF1AD108E108F10828EE820E23E0D3
:10100000921EA11CB11CC114D104E104F10429F702
:101010000E94440247CF0E9412086894B1110C94B8
:10102000A10808950E94860888F09F5798F0B92F6C
:101030009927B751B0F0E1F0660F771F881F991F0D
:101040001AF0BA95C9F714C0B13091F00E94A00807
:10105000B1E008950C94A008672F782F8827B85F17
:1010600039F0B93FCCF3869577956795B395D9F765
:101070003EF490958095709561957F4F8F4F9F4F6F
:101080000895E89409C097FB3EF49095809570957B
:1010900061957F4F8F4F9F4F9923A9F0F92F96E9C4
:1010A000BB279395F695879577956795B795F11139
:1010B000F8CFFAF4BB0F11F460FF1BC06F5F7F4FD6
:1010C0008F4F9F4F16C0882311F096E911C07723E8
:1010D00021F09EE8872F762F05C0662371F096E8F1
:1010E000862F70E060E02AF09A95660F771F881FC0
:1010F000DAF7880F9695879597F9089557FD9058D8
:10110000440F551F59F05F3F71F04795880F97FBCB
:10111000991F61F09F3F79F0879508951216130685
:101120001406551FF2CF4695F1DF08C016161706B4
:101130001806991FF1CF86957105610508940895E9
:10114000E894BB2766277727CB0197F908950E947B
:10115000BA080C942B090E941D0938F00E9424093A
:1011600020F0952311F00C9414090C941A09112401
:101170000C94A1080E947E0870F3959FC1F3950F0F
:1011800050E0551F629FF001729FBB27F00DB11D0B
:10119000639FAA27F00DB11DAA1F649F6627B00D9B
:1011A000A11D661F829F2227B00DA11D621F739F84
:1011B000B00DA11D621F839FA00D611D221F749F92
:1011C0003327A00D611D231F849F600D211D822FD9
:1011D000762F6A2F11249F5750409AF0F1F0882300
:1011E0004AF0EE0FFF1FBB1F661F771F881F91502D
:1011F0005040A9F79E3F510580F00C9414090C94BF
:10120000A1085F3FE4F3983ED4F386957795679500
:10121000B795F795E7959F5FC1F7FE2B880F911D56
:101220009695879597F9089597F99F6780E870E0FC
:1012300060E008959FEF80EC089500240A9416164C
:10124000170618060906089500240A9412161306B4
:10125000140605060895092E0394000C11F4882342
:1012600052F0BB0F40F4BF2B11F460FF04C06F5F5E
:101270007F4F8F4F9F4F0895A1E21A2EAA1BBB1BD1
:10128000FD010DC0AA1FBB1FEE1FFF1FA217B30752
:10129000E407F50720F0A21BB30BE40BF50B661F68
:1012A000771F881F991F1A9469F76095709580952C
:1012B00090959B01AC01BD01CF010895EE0FFF1F7A
:1012C000881F8BBF0790F691E02D1994F894FFCFFB
:1012D0000E1F1F1F1F1F0E0000000000CD01750212
:1012E0006E011A029F017D01910100000000D904E6
:1012F000750285038403486F6C61206D756E646FA1
:1013000021210044697374616E6369613A2000634E
:061310006D000D0A000053
:00000001FF
