:100000000C9431010C9462010C9462010C94620115
:100010000C9462010C9462010C9462010C946201D4
:100020000C9462010C9462010C9462010C946201C4
:100030000C9462010C9462010C9462010C946201B4
:100040000C9462010C9462010C9462010C946201A4
:100050000C9462010C9462010C9462010C94590599
:100060000C9462010C9423050C94F9040C94620125
:100070000C9462010C9462010C9462010C94620174
:100080000C9462010C9462010C9462010C94620164
:100090000C9462010C9462010C9462010C94A3050F
:1000A0000C9462010C9462010C9462010C94620144
:1000B0000C9462010C9462010C9462010C94620134
:1000C0000C9462010C9462010C9462010C94620124
:1000D0000C9462010C9462010C9462010C94620114
:1000E0000C9462010C942A030C947D020C94C503B9
:1000F0000C94C7060C9424030C9470010C94D40344
:100100000C94C7010C94FE020C949A010C942E03DB
:100110000C94C4030C94EE030C94D6010C94F903D4
:100120000C9438030C941C040C9479040C94300245
:100130000C9464010C9434030C9415030C9419036F
:100140000C94EA010C94F8010C940A040C943C03FE
:100150000C941D030C94E7030C9450030C9442037D
:100160000C9454030C944A030C9446030C9403031C
:100170000C94210300002200250028002B002E00F3
:100180003100340002010000050108010B010505E2
:100190000505070508080808020202020A0A0808FD
:1001A000040404040101010101010101030303032B
:1001B00003030303040707070C0C0C0C0C0C0C0CBA
:1001C0000202020206060606060606060B0B0B0BCB
:1001D0000B0B0B0B010210202008081020401020F0
:1001E00040800201020108040201010204081020FB
:1001F00040808040201008040201800402018040F9
:100200002010080402010804020101020408102061
:100210004080010204081020408000000A0B0209FF
:100220000C0D0E0807030401000000000000000090
:1002300000000000000000000000000000000000BE
:10024000000000000000121110000000000000007B
:10025000000000000000000000000000000000009E
:10026000C70611241FBECFEFD1E2DEBFCDBF00E035
:100270000CBF12E0A0E0B2E0ECE3F0E100E00BBF65
:1002800002C007900D92AC32B107D9F723E0ACE27F
:10029000B2E001C01D92AA37B207E1F711E0C1E355
:1002A000D1E000E006C021970109802FFE010E94E5
:1002B0001408C033D10780E00807A9F70E9400079F
:1002C0000C941C080C940000E091CF02F091D00235
:1002D000309729F01092CA021092C9021994089519
:1002E000CF93DF93AC01E091CD02F091CE02309735
:1002F000F1F09091CC028091CB029817C0F090E081
:10030000292F30E02617370754F4D901A45DBD4FDB
:10031000240F351FE90128812C939F5FF1CF1092A4
:10032000CC026093CB02CB01DF91CF911994DF9186
:10033000CF910895AF92BF92CF92DF92EF92FF924A
:100340000F931F93CF93DF936C017B018B01040FFD
:10035000151FEB015E01AE18BF08C017D10759F099
:100360006991D601ED91FC910190F081E02DC601DB
:100370001995892B79F7C501DF91CF911F910F91C5
:10038000FF90EF90DF90CF90BF90AF900895FC0169
:10039000538D448D252F30E0842F90E0821B930BEA
:1003A000541710F0CF96089501970895FC01918D90
:1003B000828D981761F0A28DAE0FBF2FB11D5D9693
:1003C0008C91928D9F5F9F73928F90E008958FEF35
:1003D0009FEF0895FC01918D828D981731F0828DE9
:1003E000E80FF11D858D90E008958FEF9FEF089540
:1003F000FC01918D228D892F90E0805C9F4F821BA4
:1004000091098F739927089581ED92E00E94F80178
:1004100021E0892B09F420E0822F0895FC01A48DAE
:10042000A80FB92FB11DA35ABF4F2C91848D90E016
:1004300001968F739927848FA689B7892C93A089F9
:10044000B1898C91837080648C93938D848D981383
:1004500006C00288F389E02D80818F7D8083089516
:10046000EF92FF920F931F93CF93DF93EC0181E004
:10047000888F9B8D8C8D98131AC0E889F9898081AB
:1004800085FF15C09FB7F894EE89FF896083E889DE
:10049000F98980818370806480839FBF81E090E0D0
:1004A000DF91CF911F910F91FF90EF900895F62E5D
:1004B0000B8D10E00F5F1F4F0F731127E02E8C8DF7
:1004C0008E110CC00FB607FCFACFE889F98980813C
:1004D00085FFF5CFCE010E940E02F1CFEB8DEC0F20
:1004E000FD2FF11DE35AFF4FF0829FB7F8940B8F59
:1004F000EA89FB8980818062CFCFCF93DF93EC01C3
:10050000888D8823B9F0AA89BB89E889F9898C91FB
:1005100085FD03C0808186FD0DC00FB607FCF7CFB7
:100520008C9185FFF2CF808185FFEDCFCE010E94B7
:100530000E02E9CFDF91CF91089580E090E0892B02
:1005400029F00E94040281110E94000080E090E0E6
:10055000892B49F080E090E0892B29F00E9400006F
:1005600081110E94000080E090E0892B49F080E03A
:1005700090E0892B29F00E94000081110E94000068
:1005800080E090E0892B49F080E090E0892B29F011
:100590000E94000081110C9400000895282F30E083
:1005A000F901E65EFD4F9491F901EC52FE4F449142
:1005B00022573E4FF9012491222309F435C0992393
:1005C00011F191509231F8F4E92FF0E08827E451CD
:1005D000FD4F8F4F0C9414081D032103FE021503D9
:1005E0001903030324032A032E03340338033C03B3
:1005F0004203460303034A035003540380918000DF
:100600008F7780938000E22FF0E0EE0FFF1FEC5811
:10061000FE4FA591B4918FB7F894EC91611148C049
:1006200040954E234C938FBF0895809180008F7D1D
:10063000E8CF80918000877FE4CF84B58F7784BD39
:10064000E2CF84B58F7DFBCF8091B0008F77809310
:10065000B000D9CF8091B0008F7DF9CF809190000C
:100660008F7780939000CFCF809190008F7DF9CFCE
:1006700080919000877FF5CF8091A0008F77809345
:10068000A000C1CF8091A0008F7DF9CF8091A00004
:10069000877FF5CF809120018F7780932001B3CFA2
:1006A000809120018F7DF9CF80912001877FF5CF48
:1006B0004E2BB8CF3FB7F8948091C1029091C202FF
:1006C000A091C302B091C40226B5A89B05C02F3FDC
:1006D00019F00196A11DB11D3FBFBA2FA92F982F68
:1006E0008827BC01CD01620F711D811D911D42E063
:1006F000660F771F881F991F4A95D1F7089520919B
:100700007202260F3327331F21323105ECF420917A
:100710009602FC0190E080E0243069F082E00895C8
:10072000A09172022191AC014E5A5D4FA40FB52FDA
:10073000B11D2C930196861798F380917202680F71
:100740006093720280E0089581E00895109296020D
:1007500081E0809398021092970261E084E10E9408
:10076000CE0261E085E10E94CE02E9EBF0E08081FB
:100770008E7F808380818D7F808388E48093B80022
:1007800085E48093BC0008950895E091CC028091A7
:10079000CB02E81730F4F0E0E45DFD4F808190E09B
:1007A00008958FEF9FEF08959091CC028091CB0236
:1007B0002FEF3FEF981748F4E92FF0E0E45DFD4F8D
:1007C000208130E09F5F9093CC02C9010895809111
:1007D000CB029091CC02891B990B0895CF93DF93A4
:1007E000CB01EA01642F0E947F03CE01DF91CF91FC
:1007F0000895CF93DF931F92CDB7DEB7698361E091
:10080000CE0101960E947F0381E090E00F90DF917E
:10081000CF91089590E080E00895FB0101900020C1
:10082000E9F73197AF01461B570BDC01ED91FC91C5
:100830000280F381E02D199464E272E08EE693E089
:100840000C940D04CF93DF9385ED8093BC008091D1
:100850004E0290914F02A0915002B0915102079622
:10086000A11DB11D23E0B695A795979587952A956B
:10087000D1F72091BC0024FD03C01092960236C02F
:1008800040914E0250914F0260915002709151027E
:10089000452B462B472B69F30097A105B10541F085
:1008A00025E32A95F1F700000197A109B109E1CFED
:1008B00080914D0291E090934C028823B9F0C09151
:1008C000B800D091BA008091BC008A7B8093BC00B4
:1008D00060E084E10E94CE0260E085E10E94CE02E9
:1008E0000E94A603D093BA00C093B800DF91CF91C5
:1008F00008958F929F92AF92BF92CF92DF92EF9224
:10090000FF92CF93DF93CDB7DEB7A1970FB6F894E0
:10091000DEBF0FBECDBF8AE0882E912CA12CB12C5A
:100920008091CB029091CC02891B990B1816190665
:100930000CF048C08EE693E00E94D4036C01990F3E
:10094000EE08FF08F7FE28C06DE281ED92E00E94FC
:10095000300222273327A9012C193D094E095F09CE
:1009600019A2CE0181967C01CA01B901A5019401A9
:100970000E94F207605DF70162937F012115310546
:100980004105510589F7E114F10451F2B70181EDF8
:1009900092E00E940D04C4CFA701960119A2CE01D6
:1009A00081967C01CA01B901A50194010E94F20758
:1009B000605DF70162937F01211531054105510505
:1009C00089F7E1CF69E272E081ED92E00E940D04C7
:1009D000A1960FB6F894DEBF0FBECDBFDF91CF91C9
:1009E000FF90EF90DF90CF90BF90AF909F908F904F
:1009F00008951F920F920FB60F9211240BB60F920B
:100A00002F933F934F935F936F937F938F939F9316
:100A1000AF93BF93EF93FF9381ED92E00E940E029C
:100A2000FF91EF91BF91AF919F918F917F916F91C6
:100A30005F914F913F912F910F900BBE0F900FBE82
:100A40000F901F9018951F920F920FB60F921124BE
:100A50000BB60F922F938F939F93EF93FF93E09199
:100A6000E102F091E2028081E091E702F091E80278
:100A700082FD1DC090818091EA028F5F8F7320916B
:100A8000EB02821741F0E091EA02F0E0EF52FD4FF5
:100A9000958F8093EA02FF91EF919F918F912F9113
:100AA0000F900BBE0F900FBE0F901F901895808176
:100AB000F2CF1F920F920FB60F9211242F933F93F4
:100AC0008F939F93AF93BF938091BD029091BE028D
:100AD000A091BF02B091C0023091BC0223E0230F6D
:100AE0002D3758F50196A11DB11D2093BC028093AE
:100AF000BD029093BE02A093BF02B093C00280914A
:100B0000C1029091C202A091C302B091C4020196A9
:100B1000A11DB11D8093C1029093C202A093C30294
:100B2000B093C402BF91AF919F918F913F912F914C
:100B30000F900FBE0F901F90189526E8230F029676
:100B4000A11DB11DD2CF1F920F920FB60F9211248B
:100B50000BB60F922F933F934F935F936F937F93B7
:100B60008F939F93AF93BF93EF93FF938091B900BF
:100B7000887F803609F44DC008F040C0883209F4FF
:100B8000A9C028F5803109F49DC0C8F4882309F470
:100B9000FBC0883009F496C0FF91EF91BF91AF91EF
:100BA0009F918F917F916F915F914F913F912F9185
:100BB0000F900BBE0F900FBE0F901F9018958831AD
:100BC00009F488C0803241F78093950214C08034C4
:100BD00009F49DC040F48033B9F38833E9F680937B
:100BE000950285ECB0C0803509F485C0883509F4DC
:100BF00096C0883489F60E942204CECF883909F441
:100C00008CC038F5883729F050F4883611F08037D9
:100C100019F683E0809396021092940257C08838A8
:100C200009F47BC0803919F0803809F0B5CF809184
:100C30009402803208F071C0E091940281E08E0F3E
:100C4000809394028091BB00F0E0EC58FD4F8083CC
:100C50003DC0803B39F0E0F4803A09F479C0883A2D
:100C600009F09ACF84E0809396021092730210925A
:100C70007202E091C702F091C80219958091720248
:100C800081110FC081E0809372021092520209C05C
:100C9000803C09F4A6CF883C09F4A3CF883B09F037
:100CA0007BCFE091730281E08E0F80937302F0E0BE
:100CB000EE5AFD4F80818093BB009091730280912A
:100CC000720229C08091BB028093BB0085EC8093A7
:100CD000BC0062CF9091BA028091B902981758F582
:100CE000E091BA0281E08E0F8093BA02F0E0E756FD
:100CF000FD4F8081E9CFE091BA0281E08E0F8093B1
:100D0000BA028091BB00F0E0E756FD4F80839091DE
:100D1000BA028091B9029817C8F285E8D8CFE0915D
:100D2000BA0281E08E0F8093BA028091BB00F0E09E
:100D3000E756FD4F80838091980281115CCF81E05E
:100D40008093970284EA8093BC001092960224CF8D
:100D500085EC8093BC0010929602809194028032C0
:100D600030F4E0919402F0E0EC58FD4F1082609175
:100D7000940270E0E091C502F091C60284E792E02F
:100D800019951092940208CF1092950234CFE1ED9C
:100D9000F2E01382128288EE93E0A0E0B0E0848358
:100DA0009583A683B78324E032E03183208325EC4A
:100DB00030E03587248724EC30E03787268720EC25
:100DC00030E0318B208B21EC30E0338B228B22EC16
:100DD00030E0358B248B26EC30E0378B268B118E60
:100DE000128E138E148EEEE6F3E013821282848349
:100DF0009583A683B78386E192E0918380830895EB
:100E0000789484B5826084BD84B5816084BD85B5E5
:100E1000826085BD85B5816085BD80916E008160F1
:100E200080936E0010928100809181008260809397
:100E30008100809181008160809381008091800099
:100E40008160809380008091B10084608093B100C4
:100E50008091B00081608093B000809191008260A9
:100E600080939100809191008160809391008091A6
:100E700090008160809390008091A10082608093B7
:100E8000A1008091A10081608093A1008091A000C9
:100E900081608093A0008091210182608093210174
:100EA00080912101816080932101809120018160E6
:100EB0008093200180917A00846080937A008091F1
:100EC0007A00826080937A0080917A0081608093BA
:100ED0007A0080917A00806880937A001092C10035
:100EE0001092CC021092CB021092CA021092C90248
:100EF0000E94A60384E691E09093C8028093C70203
:100F000080E791E09093C6028093C5028AEE8093B9
:100F1000BA0089E794E09093CE028093CD028CE1F1
:100F200094E09093D0028093CF02E091E102F0919F
:100F3000E20282E08083E091DD02F091DE02108225
:100F4000E091DF02F091E0028FEC80831092E902E1
:100F5000E091E502F091E60286E08083E091E30211
:100F6000F091E402808180618083E091E302F0915E
:100F7000E402808188608083E091E302F091E402E2
:100F8000808180688083E091E302F091E4028081B7
:100F90008F7D80830E945A034B015C0188EEC82E2E
:100FA00083E0D82EE12CF12C0E945A0368197909AC
:100FB0008A099B09683E734081059105A8F321E0E9
:100FC000C21AD108E108F10888EE880E83E0981E65
:100FD000A11CB11CC114D104E104F10429F70E9441
:100FE0009D02D8CFA1E21A2EAA1BBB1BFD010DC08A
:100FF000AA1FBB1FEE1FFF1FA217B307E407F507C9
:1010000020F0A21BB30BE40BF50B661F771F881FA4
:10101000991F1A9469F760957095809590959B013A
:10102000AC01BD01CF010895EE0FFF1F881F8BBFDC
:0C1030000790F691E02D1994F894FFCF82
:10103C000000000030029A01C7017D02F801D601C0
:10104C00EA0100000000F903EE030A04C403E703FD
:0C105C00D403C503686F6C61000D0A002E
:00000001FF
