:100000000C9457010C9488010C9488010C9488017D
:100010000C9488010C9488010C9488010C9488013C
:100020000C9488010C9488010C9488010C9488012C
:100030000C9488010C9488010C9488010C9488011C
:100040000C9488010C9488010C9488010C9488010C
:100050000C9488010C9488010C9488010C944D0434
:100060000C9488010C9417040C94ED030C948801F3
:100070000C9488010C9488010C9488010C948801DC
:100080000C9488010C9488010C9488010C948801CC
:100090000C9488010C9488010C9488010C948801BC
:1000A0000C9488010C9488010C9488010C948801AC
:1000B0000C9488010C9488010C9488010C9488019C
:1000C0000C9488010C9488010C9488010C9488018C
:1000D0000C9488010C9488010C9488010C9488017C
:1000E0000C9488010C94F7020C948A010C94360647
:1000F0000C9467060C9431060C94B0060C94010322
:100100000C9453060C9420020C9405030C946D027D
:100110000C94DC020C94E2020C9487060C94930677
:100120000C940F030C94EA020C94FE060C94FB0250
:100130000C945F060C9447060C946F060C941703FE
:100140000C94DA010C9409030C94B7010C94D406B6
:100150000C9413030C94E6020C94A4060C94C601B0
:100160000C94BC060C94E8010C943B060C94E0063D
:100170000C94EE020C941D030C94C8060C947B06A0
:100180000C9421030C941C030C94F1020000210038
:10019000240027002A002D00300033000101000058
:1001A000040107010A0100002200250028002B009D
:1001B0002E003100340002010000050108010B018E
:1001C000000020002300260029002C002F00320010
:1001D00000010000030106010901050505050705E9
:1001E00008080808020202020A0A080804040404B3
:1001F00001010101010101010303030303030303DF
:10020000040707070C0C0C0C0C0C0C0C020202026D
:1002100006060606060606060B0B0B0B0B0B0B0B56
:100220000102102020080810204010204080020108
:1002300002010804020101020408102040808040ED
:1002400020100804020180040201804020100804EC
:10025000020108040201010204081020408001028A
:1002600004081020408000000A0B02090C0D0E0843
:10027000070304010000000000000000000000006F
:10028000000000000000000000000000000000006E
:10029000000012111000000000000000000000002B
:1002A000000000000000000000000000FE06112415
:1002B0001FBECFEFD1E2DEBFCDBF00E00CBF12E02A
:1002C000A0E0B2E0E8E1FFE000E00BBF02C0079071
:1002D0000D92A634B107D9F722E0A6E4B2E001C03E
:1002E0001D92A03FB207E1F711E0C7E5D1E000E0C1
:1002F00006C021970109802FFE010E947B07C635A9
:10030000D10780E00807A9F70E9497040C948A0798
:100310000C940000AF92BF92CF92DF92EF92FF92C7
:100320000F931F93CF93DF936C017B018B01040F1D
:10033000151FEB015E01AE18BF08C017D10759F0B9
:100340006991D601ED91FC910190F081E02DC601FB
:100350001995892B79F7C501DF91CF911F910F91E5
:10036000FF90EF90DF90CF90BF90AF900895FC0189
:10037000538D448D252F30E0842F90E0821B930B0A
:10038000541710F0CF96089501970895FC01918DB0
:10039000828D981761F0A28DAE0FBF2FB11D5D96B3
:1003A0008C91928D9F5F9F73928F90E008958FEF55
:1003B0009FEF0895FC01918D828D981731F0828D09
:1003C000E80FF11D858D90E008958FEF9FEF089560
:1003D000FC01918D228D892F90E0805C9F4F821BC4
:1003E00091098F739927089583E592E00E94E801AF
:1003F00021E0892B09F420E0822F0895FC01A48DCF
:10040000A80FB92FB11DA35ABF4F2C91848D90E036
:1004100001968F739927848FA689B7892C93A08919
:10042000B1898C91837080648C93938D848D9813A3
:1004300006C00288F389E02D80818F7D8083089536
:10044000EF92FF920F931F93CF93DF93EC0181E024
:10045000888F9B8D8C8D98131AC0E889F9898081CB
:1004600085FF15C09FB7F894EE89FF896083E889FE
:10047000F98980818370806480839FBF81E090E0F0
:10048000DF91CF911F910F91FF90EF900895F62E7D
:100490000B8D10E00F5F1F4F0F731127E02E8C8D17
:1004A0008E110CC00FB607FCFACFE889F98980815C
:1004B00085FFF5CFCE010E94FE01F1CFEB8DEC0F51
:1004C000FD2FF11DE35AFF4FF0829FB7F8940B8F79
:1004D000EA89FB8980818062CFCFCF93DF93EC01E3
:1004E000888D8823B9F0AA89BB89E889F9898C911C
:1004F00085FD03C0808186FD0DC00FB607FCF7CFD8
:100500008C9185FFF2CF808185FFEDCFCE010E94D7
:10051000FE01E9CFDF91CF91089580E090E0892B33
:1005200029F00E94F40181110E94000080E090E017
:10053000892B49F080E090E0892B29F00E9400008F
:1005400081110E94000080E090E0892B49F080E05A
:1005500090E0892B29F00E94000081110E94000088
:1005600080E090E0892B49F080E090E0892B29F031
:100570000E94000081110C94000008958150823186
:1005800008F05AC0E82FF0E08827E653FD4F8F4F60
:100590000C947B07EA02EE02DC02E202E6021C0394
:1005A000F102F702FB020103050309030F03130322
:1005B0001C0317031D032103809180008F77809314
:1005C00080000895809180008F7DF9CF8091800018
:1005D000877FF5CF84B58F7784BD089584B58F7DEF
:1005E000FBCF8091B0008F778093B0000895809109
:1005F000B0008F7DF9CF809190008F77809390002D
:100600000895809190008F7DF9CF80919000877F31
:10061000F5CF8091A0008F778093A00008958091FE
:10062000A0008F7DF9CF8091A000877FF5CF8091CA
:1006300020018F77809320010895809120018F7D84
:10064000F9CF80912001877FF5CFCF93DF93282FBB
:1006500030E0F901EA59FD4F8491F901E05EFD4F68
:10066000D491F901E652FE4FC491CC23A1F081113F
:100670000E94BE02EC2FF0E0EE0FFF1FE054FE4F91
:10068000A591B491EC91ED2381E090E009F480E034
:10069000DF91CF91089580E090E0FACF1F93CF9340
:1006A000DF93282F30E0F901EA59FD4F8491F901D9
:1006B000E05EFD4FD491F901E652FE4FC491CC2388
:1006C000A9F0162F81110E94BE02EC2FF0E0EE0F70
:1006D000FF1FEA55FE4FA591B4918FB7F894EC91A6
:1006E000111108C0D095DE23DC938FBFDF91CF912D
:1006F0001F910895DE2BF8CFCF93DF9390E0FC019C
:10070000E05EFD4F249186529E4FFC018491882328
:10071000D1F090E0880F991FFC01E457FE4FA5919E
:10072000B491FC01EA55FE4FC591D49161110EC000
:100730009FB7F8948C91E22FE0958E238C932881BB
:10074000E223E8839FBFDF91CF9108958FB7F8949C
:10075000EC91E22BEC938FBFF6CF3FB7F8948091EA
:100760004B0290914C02A0914D02B0914E0226B5E1
:10077000A89B05C02F3F19F00196A11DB11D3FBFD9
:10078000BA2FA92F982F8827BC01CD01620F711DA8
:10079000811D911D42E0660F771F881F991F4A95A2
:1007A000D1F70895FC0101900020E9F73197AF01DE
:1007B000481B590BBC0183E592E00C948A01CF934E
:1007C000DF930E94D203EC0182E192E00E94D20307
:1007D0008C0F9D1FDF91CF9108951F920F920FB63E
:1007E0000F9211240BB60F922F933F934F935F9369
:1007F0006F937F938F939F93AF93BF93EF93FF93E9
:1008000083E592E00E94FE01FF91EF91BF91AF91CD
:100810009F918F917F916F915F914F913F912F9118
:100820000F900BBE0F900FBE0F901F9018951F9248
:100830000F920FB60F9211240BB60F922F938F9336
:100840009F93EF93FF93E0916302F09164028081A4
:10085000E0916902F0916A0282FD1DC09081809151
:100860006C028F5F8F7320916D02821741F0E091CF
:100870006C02F0E0ED5AFD4F958F80936C02FF9172
:10088000EF919F918F912F910F900BBE0F900FBE04
:100890000F901F9018958081F2CF1F920F920FB684
:1008A0000F9211242F933F938F939F93AF93BF93F6
:1008B0008091470290914802A0914902B0914A026A
:1008C0003091460223E0230F2D3758F50196A11DE4
:1008D000B11D209346028093470290934802A09353
:1008E0004902B0934A0280914B0290914C02A09130
:1008F0004D02B0914E020196A11DB11D80934B0295
:1009000090934C02A0934D02B0934E02BF91AF91D1
:100910009F918F913F912F910F900FBE0F901F903D
:10092000189526E8230F0296A11DB11DD2CFCF93B3
:10093000DF93CDB7DEB7A1970FB6F894DEBF0FBE39
:10094000CDBF789484B5826084BD84B5816084BD58
:1009500085B5826085BD85B5816085BD80916E005D
:10096000816080936E00109281008091810082608E
:1009700080938100809181008160809381008091CB
:1009800080008160809380008091B10084608093BA
:10099000B1008091B00081608093B000809191009F
:1009A000826080939100809191008160809391009A
:1009B000809190008160809390008091A10082607E
:1009C0008093A1008091A10081608093A10080911B
:1009D000A00081608093A0008091210182608093BB
:1009E000210180912101816080932101809120016A
:1009F00081608093200180917A00846080937A00E6
:100A000080917A00826080937A0080917A00816080
:100A100080937A0080917A00806880937A001092A7
:100A2000C100E0916302F091640282E08083E09172
:100A30005F02F09160021082E0916102F091620227
:100A40008FEC808310926B02E0916702F091680254
:100A500086E08083E0916502F0916602808180618A
:100A60008083E0916502F0916602808188608083D6
:100A7000E0916502F0916602808180688083E09158
:100A80006502F091660280818F7D808360E086E15F
:100A90000E947C0360E087E10E947C0361E088E1C2
:100AA0000E947C0399E6292E92E0392E2AE0822EBC
:100AB000912CA12CB12C85E192E00E94DF03809162
:100AC0007B00877F80937B0020E420937C008091D3
:100AD0007A00806480937A0080917A0086FDFCCF52
:100AE00080917800A0917900BA2FA82FAD010B2E2C
:100AF000000C660B770B40934F02509350026093AB
:100B00005102709352022FEF30E00E9483072FEFC3
:100B100033E040E050E00E942B07F22EE32E022F3C
:100B2000132F61E083E00E947C030115110509F099
:100B300073C060E083E00E944E03C0904F02D090EB
:100B40005002E0905102F0905202F7FE3EC16DE279
:100B500083E592E00E94200222273327A9012C1965
:100B60003D094E095F0919A28E010F5D1F4FCA0191
:100B7000B901A50194010E944A07605DF8016293E2
:100B80008F01211531054105510589F70115110521
:100B900019F0C8010E94D20382E192E00E94D203C0
:100BA00086E10E942503019709F025C180E292E0C9
:100BB0000E94DF0387E10E94250360E0019709F0AE
:100BC00061E088E10E944E030E94AD032B013C01CD
:100BD00088EEC82E83E0D82EE12CF12C0E94AD03C4
:100BE0006419750986099709683E73408105910566
:100BF000A8F3F1E0CF1AD108E108F10828EE420E7F
:100C000023E0521E611C711CC114D104E104F104E3
:100C100029F70E948D024FCF0F3F110511F461E0BB
:100C200089CFF1018491EFEFE80FE23108F0C8C0FD
:100C3000F0E08827E15EF94F8F4F0C947B07310677
:100C400036063B0647065306E0065F0667066F0654
:100C50007B0687069306A406B006E006BC06C80617
:100C6000D40684B5806884BDF7BC67CF84B5806244
:100C700084BDF8BC62CF8091800080688093800042
:100C80008F2D9E2D909389008093880056CF809160
:100C900080008062809380008F2D9E2D90938B002A
:100CA00080938A004ACF8091800088608093800082
:100CB0008F2D9E2D90938D0080938C003ECF809140
:100CC000B00080688093B000F092B30036CF80917E
:100CD000B00080628093B000F092B4002ECF80917B
:100CE00090008068809390008F2D9E2D90939900A6
:100CF0008093980022CF8091900080628093900032
:100D00008F2D9E2D90939B0080939A0016CF8091FB
:100D100090008860809390008F2D9E2D90939D0071
:100D200080939C000ACF8091A00080688093A000EF
:100D30008091A0008F7B8093A0008F2D9E2D90939B
:100D4000A9008093A800F9CE8091A00080628093D2
:100D5000A0008F2D9E2D9093AB008093AA00EDCE26
:100D60008091A00088608093A0008F2D9E2D90938D
:100D7000AD008093AC00E1CE80912001806880932B
:100D800020018F2D9E2D9093290180932801D5CE8F
:100D9000809120018062809320018F2D9E2D909361
:100DA0002B0180932A01C9CE809120018860809315
:100DB00020018F2D9E2D90932D0180932C01BDCE6F
:100DC000003811050CF02BCFB4CEA701960119A263
:100DD0008E010F5D1F4FCA01B901A50194010E9448
:100DE0004A07605DF80162938F01211531054105C5
:100DF000510589F7CBCE81E392E0DACEE3E5F2E06C
:100E00001382128288EE93E0A0E0B0E084839583A1
:100E1000A683B78384E092E09183808385EC90E0A1
:100E20009587848784EC90E09787868780EC90E0B4
:100E3000918B808B81EC90E0938B828B82EC90E0A5
:100E4000958B848B86EC90E0978B868B118E128E1F
:100E5000138E148E0895052E97FB1EF400940E94A5
:100E6000420757FD07D00E944A0707FC03D04EF403
:100E70000C94420750954095309521953F4F4F4F28
:100E80005F4F089590958095709561957F4F8F4F36
:100E90009F4F0895A1E21A2EAA1BBB1BFD010DC096
:100EA000AA1FBB1FEE1FFF1FA217B307E407F5071A
:100EB00020F0A21BB30BE40BF50B661F771F881FF6
:100EC000991F1A9469F760957095809590959B018C
:100ED000AC01BD01CF010895A29FB001B39FC00135
:100EE000A39F700D811D1124911DB29F700D811D56
:100EF0001124911D0895EE0FFF1F881F8BBF0790CF
:100F0000F691E02D19940E946C07B7FF0895821B9B
:080F1000930B0895F894FFCF44
:100F18000000000020028A01B7016D02E801C60145
:100F2800DA010D0A00486F6C61206D756E646F0000
:100F3800426F746F6E2070726573696F6E61646F53
:100F480000426F746F6E206E6F2070726573696FE8
:060F58006E61646F0000F1
:00000001FF
