:100000000C941A010C944B010C944B010C944B0171
:100010000C944B010C944B010C944B010C944B0130
:100020000C944B010C944B010C944B010C944B0120
:100030000C944B010C944B010C944B010C944B0110
:100040000C944B010C945D040C944B010C944B01EB
:100050000C944B010C944B010C944B010C948903B0
:100060000C944B010C944B010C944B010C944B01E0
:100070000C944B010C944B010C944B010C944B01D0
:100080000C942F040C944B010C944B010C944B01D9
:100090000C944B010C944B010C944B010C944B01B0
:1000A0000C944B010C944B010C9401040C944B01E7
:1000B0000C944B010C944B010C944B010C94D30306
:1000C0000C944B010C944B010C944B010C944B0180
:1000D0000C944B010C944B010C944B010C944B0170
:1000E0000C944B010C9418020C941D020C945202B7
:1000F0000C946A020C946E020C9437020C94560213
:100100000C9464020C945C020C944E020C94D30583
:100110000C9460020C943E020C9433020C942F0257
:100120000C9448020C9444020C943B0200000A0B0D
:1001300002090C0D0E080703040100000000000076
:1001400000000000000000000000000000000000AF
:10015000000000000000000012111000000000006C
:10016000000000000000000000000000000000008F
:10017000000000002200250028002B002E00310086
:10018000340002010000050108010B0100002100FC
:10019000240027002A002D00300033000101000058
:1001A000040107010A0105050505070508080808F7
:1001B000020202020A0A08080404040401010101FF
:1001C00001010101030303030303030304070707FA
:1001D0000C0C0C0C0C0C0C0C02020202060606069F
:1001E000060606060B0B0B0B0B0B0B0B010210206C
:1001F000200808102040102040800201020108045D
:1002000002010102040810204080804020100804F0
:100210000201800402018040201008040201080449
:10022000020101020408102040800102040810208D
:100230004080D30511241FBECFEFD1E2DEBFCDBF7A
:1002400000E00CBF12E0A0E0B2E0ECE5FDE000E071
:100250000BBF02C007900D92A030B107D9F722E082
:10026000A0E0B2E001C01D92AD3BB207E1F711E0A2
:10027000CAE1D1E000E006C021970109802FFE010C
:100280000E94A406C931D10780E00807A9F70E949F
:100290008B040C94AC060C94000090E0FC01E4513B
:1002A000FE4F24918A559E4FFC018491882399F03A
:1002B00090E0880F991FFC01E457FE4FA591B4917F
:1002C000FC01EE58FE4F859194918FB7F894EC9114
:1002D000E22BEC938FBF0895CF92DF92EF92FF92C3
:1002E000DC01A03282E0B807D4F5A53BB10514F0DB
:1002F000A4EBB0E04091BB0228E830E0241B3109B8
:1003000047FD3395220F331F220F331F6901330F2F
:10031000EE08FF084091BC0228E532E0241B3109B9
:1003200047FD3395220F331F220F331F032E000C7E
:10033000440B550B2C193D094E095F09B7FF02C04C
:10034000B0E0A0E00E945F0624EB30E040E050E027
:100350000E943506C20ED31EE41EF51ED601E091A2
:10036000BA02E03380F52091BB0288E890E0821B5E
:10037000910927FD9395880F991F880F991FA8173A
:10038000B90784F02091BC0288E592E0821B9109B4
:1003900027FD9395880F991F880F991FA817B907F4
:1003A0000CF4CD010297880F991F4FB7F8942E2FA8
:1003B00030E0F901EE0FFF1FE20FF31FE65DFD4F86
:1003C000928381834FBFFF90EF90DF90CF9008958D
:1003D000282F30E0F901E45DFE4F9491F901E451DA
:1003E000FE4F44912A553E4FF9012491222309F4EE
:1003F00035C0992311F191509231F8F4E92FF0E0D2
:100400008827EA5FFD4F8F4F0C94A40637023B020A
:1004100018022F0233021D023E02440248024E021D
:10042000520256025C0260021D0264026A026E02FF
:10043000809180008F7780938000E22FF0E0EE0FB4
:10044000FF1FEE58FE4FA591B4918FB7F894EC9131
:10045000611148C040954E234C938FBF0895809101
:1004600080008F7DE8CF80918000877FE4CF84B5C6
:100470008F7784BDE2CF84B58F7DFBCF8091B000B4
:100480008F778093B000D9CF8091B0008F7DF9CF66
:10049000809190008F7780939000CFCF80919000D3
:1004A0008F7DF9CF80919000877FF5CF8091A0005C
:1004B0008F778093A000C1CF8091A0008F7DF9CF6E
:1004C0008091A000877FF5CF809120018F77809366
:1004D0002001B3CF809120018F7DF9CF8091200141
:1004E000877FF5CF4E2BB8CF3FB7F89480910A02A3
:1004F00090910B02A0910C02B0910D0226B5A89B21
:1005000005C02F3F19F00196A11DB11D3FBFBA2FA5
:10051000A92F982F8827BC01CD01620F711D811D65
:10052000911D42E0660F771F881F991F4A95D1F7EA
:1005300008958F929F92AF92BF92CF92DF92EF92E7
:10054000FF920E9474024B015C0184EFC82EDD24EF
:10055000D394E12CF12C0E947402681979098A095C
:100560009B09683E734081059105A8F321E0C21AFA
:10057000D108E108F10888EE880E83E0981EA11CDE
:10058000B11CC114D104E104F10429F7FF90EF90EC
:10059000DF90CF90BF90AF909F908F900895AF92D3
:1005A000BF92CF92DF92EF92FF920F931F93CF9360
:1005B000DF936B017A01EC01CF5FDD4F28813CE0D6
:1005C000389F8001399F100D1124A0900002B12C9A
:1005D00027FF1FC0FB011182108288818F5F8883F3
:1005E00088819801280F311D87FD3A95F6012A155B
:1005F0003B051CF488818C30C4F180819181049684
:1006000080349C4908F473C0F6018081918104967E
:1006100070C088819801280F311D87FD3A952A15F1
:100620003B05DCF68881A801480F511D87FD5A95CE
:10063000FA01EE0FFF1FE40FF51FE65DFD4F80810D
:1006400086FFCBCF8881F801E80FF11D87FDFA9571
:10065000CF01EE0FFF1FE80FF91FE65DFD4F808110
:1006600060E08F730E94E801B8CF8081918128817A
:10067000A801420F511D27FD5A959A01FA01EE0F6C
:10068000FF1FE20FF31FE65DFD4F21813281820FD4
:10069000931FF7019183808388819801280F311D72
:1006A00087FD3A95F901EE0FFF1FE20FF31FE65D9C
:1006B000FD4F808186FF22C08881080F111D87FDB4
:1006C0001A95F801EE0FFF1FE00FF11FE65DFD4FD9
:1006D000808161E08F73DF91CF911F910F91FF9027
:1006E000EF90DF90CF90BF90AF900C94E80180E442
:1006F0009CE9F701918380838FEF8883DF91CF910D
:100700001F910F91FF90EF90DF90CF90BF90AF902F
:1007100008951F920F920FB60F9211242F933F93BB
:100720008F939F93AF93BF9380910602909107029E
:10073000A0910802B09109023091050223E0230F35
:100740002D3758F50196A11DB11D20930502809308
:10075000060290930702A0930802B09309028091C9
:100760000A0290910B02A0910C02B0910D02019629
:10077000A11DB11D80930A0290930B02A0930C025D
:10078000B0930D02BF91AF919F918F913F912F91A7
:100790000F900FBE0F901F90189526E8230F02961A
:1007A000A11DB11DD2CF1F920F920FB60F9211242F
:1007B0000BB60F922F933F934F935F936F937F935B
:1007C0008F939F93AF93BF93EF93FF9348E251E0D2
:1007D00064E271E090E080E00E94CF02FF91EF912F
:1007E000BF91AF919F918F917F916F915F914F9149
:1007F0003F912F910F900BBE0F900FBE0F901F9047
:1008000018951F920F920FB60F9211240BB60F92EC
:100810002F933F934F935F936F937F938F939F9308
:10082000AF93BF93EF93FF9348EA50E064EA70E020
:1008300083E090E00E94CF02FF91EF91BF91AF91D2
:100840009F918F917F916F915F914F913F912F91E8
:100850000F900BBE0F900FBE0F901F9018951F9218
:100860000F920FB60F9211240BB60F922F933F9356
:100870004F935F936F937F938F939F93AF93BF93A8
:10088000EF93FF9348E950E064E970E082E090E084
:100890000E94CF02FF91EF91BF91AF919F918F91F5
:1008A0007F916F915F914F913F912F910F900BBE70
:1008B0000F900FBE0F901F9018951F920F920FB6BA
:1008C0000F9211240BB60F922F933F934F935F9388
:1008D0006F937F938F939F93AF93BF93EF93FF9308
:1008E00048E850E064E870E081E090E00E94CF02C8
:1008F000FF91EF91BF91AF919F918F917F916F91F8
:100900005F914F913F912F910F900BBE0F900FBEB3
:100910000F901F901895789484B5826084BD84B53B
:10092000816084BD85B5826085BD85B5816085BDEA
:1009300080916E00816080936E00109281008091A2
:10094000810082608093810080918100816080932A
:100950008100809180008160809380008091B1004F
:1009600084608093B1008091B00081608093B0007A
:1009700080919100826080939100809191008160CC
:10098000809391008091900081608093900080918D
:10099000A10082608093A1008091A100816080937A
:1009A000A1008091A00081608093A000809121012E
:1009B00082608093210180912101816080932101D7
:1009C0008091200181608093200180917A00846071
:1009D00080937A0080917A00826080937A0080917F
:1009E0007A00816080937A0080917A008068809399
:1009F0007A001092C1002091140230911502032E4A
:100A0000000C440B550B60E077E883E993E00E940B
:100A10003506CA01B9012AE030E040E050E00E940A
:100A20003506209310023093110240931202509326
:100A300013028091BA02803308F050C08BE10E940B
:100A40004D018091BA02282F30E0F901EE0FFF1F0F
:100A5000E20FF31FE65DFD4F9081907C9B619083D8
:100A60001092BB021092BC022CE0622F0E949806EA
:100A7000829FB001112430E020E0AB01420F531FF0
:100A8000FA01EE0FFF1FE40FF51FE65DFD4F9081A9
:100A900096FD16C02F5F3F4F2C30310571F7813026
:100AA000C9F51092800082E0809381001092850049
:100AB00010928400B19A80916F00826080936F00E1
:100AC000E091BA028E2F90E0FC01EE0FFF1FE80FBD
:100AD000F91FE65DFD4F80818064808304EB10E0A8
:100AE00080E0E82E80E0F82E109229021092280271
:100AF000C0912802D0912902C43BD105BCF5CE019A
:100B00000E946C010E9499022A96D0932902C093F8
:100B10002802EECF823061F4109290008093910011
:100B2000109295001092940088BB80937100C8CFFA
:100B3000833069F41092A00082E08093A1001092AB
:100B4000A5001092A40089BB80937200B9CF8111D7
:100B5000B7CF1092200182E08093210110922501ED
:100B6000109224018ABB80937300AACF10932902AC
:100B700000932802C0912802D09129021C161D065C
:100B80005CF4CE010E946C010E9499022597D093DB
:100B90002902C0932802EECFE114F10409F4A4CF96
:100BA0000E940000A1CF1092190210921802109218
:100BB0000F0210920E02109224021092250210923F
:100BC00026021092270280E290E090931502809313
:100BD000140286E190E090931B0280931A0287E151
:100BE00090E090931D0280931C0288E190E0909326
:100BF0001F0280931E0289E190E09093210280936E
:100C0000200286E10E944D0180911C020E944D014C
:100C100080911E020E944D01809120020E944D0190
:100C2000109223021092220284E090E09093170227
:100C30008093160280910002803398F491E0980F1F
:100C4000909300028093BA0290E0FC01EE0FFF1F28
:100C5000E80FF91FE65DFD4F88EB9BE092838183EF
:100C600008958FEF8093BA020895052E97FB1EF426
:100C700000940E944C0657FD07D00E94670607FCAF
:100C800003D04EF40C944C06509540953095219528
:100C90003F4F4F4F5F4F08959095809570956195A8
:100CA0007F4F8F4F9F4F08950E948906A59F900DFB
:100CB000B49F900DA49F800D911D11240895B7FF3E
:100CC0000C9454060E945406821B930B0895A1E2D3
:100CD0001A2EAA1BBB1BFD010DC0AA1FBB1FEE1FB6
:100CE000FF1FA217B307E407F50720F0A21BB30B01
:100CF000E40BF50B661F771F881F991F1A9469F77D
:100D000060957095809590959B01AC01BD01CF01D8
:100D10000895A29FB001B39FC001A39F700D811DD4
:100D20001124911DB29F700D811D1124911D0895F4
:100D3000991B79E004C0991F961708F0961B881F2D
:100D40007A95C9F780950895EE0FFF1F881F8BBF16
:0C0D50000790F691E02D1994F894FFCF65
:00000001FF
