:100000000C942D010C945E010C945E010C945E0125
:100010000C945E010C945E010C945E010C945E01E4
:100020000C945E010C945E010C945E010C945E01D4
:100030000C945E010C945E010C945E010C945E01C4
:100040000C945E010C945E010C945E010C945E01B4
:100050000C945E010C945E010C945E010C94CE0431
:100060000C945E010C9498040C946E040C945E0144
:100070000C945E010C945E010C945E010C945E0184
:100080000C945E010C945E010C945E010C945E0174
:100090000C945E010C945E010C945E010C941805A6
:1000A0000C945E010C945E010C945E010C945E0154
:1000B0000C945E010C945E010C945E010C945E0144
:1000C0000C945E010C945E010C945E010C945E0134
:1000D0000C945E010C945E010C945E010C945E0124
:1000E0000C945E010C94E8020C94F0020C94CD0286
:1000F0000C94F3020C9496010C9415030C94B40325
:100100000C94C4030C94C7010C944C020C9403038C
:100110000C94FF010C9407030C9419030C94D7035F
:100120000C94EC020C94F9020C9404040C943C061C
:100130000C94B9010C941F030C9467010C940B03ED
:100140000C94FD020C94D2020C9411030C94B50390
:100150000C9460010C94A5010C9468010C94230389
:100160000C9469010C9433040C94E4020000220006
:10017000250028002B002E00310034000201000071
:10018000050108010B010505050507050808080814
:10019000020202020A0A080804040404010101011F
:1001A000010101010303030303030303040707071A
:1001B0000C0C0C0C0C0C0C0C0202020206060606BF
:1001C000060606060B0B0B0B0B0B0B0B010210208C
:1001D000200808102040102040800201020108047D
:1001E0000201010204081020408080402010080411
:1001F000020180040201804020100804020108046A
:1002000002010102040810204080010204081020AD
:10021000408000000A0B02090C0D0E0807030401C0
:1002200000000000000000000000000000000000CE
:10023000000000000000000000000000000012119B
:10024000100000000000000000000000000000009E
:1002500000000000000000003C0611241FBECFEF8C
:10026000D1E2DEBFCDBF00E00CBF12E0A0E0B2E003
:10027000E4E2F2E100E00BBF02C007900D92A83269
:10028000B107D9F723E0A8E2B2E001C01D92A4397A
:10029000B207E1F711E0CDE2D1E000E006C021971E
:1002A0000109802FFE010E940809CC32D10780E0AD
:1002B0000807A9F70E9475060C9410090C94000019
:1002C0008091EA029091E902891B990B08950895A3
:1002D0000895AF92BF92CF92DF92EF92FF920F9369
:1002E0001F93CF93DF936C017B018B01040F151FCC
:1002F000EB015E01AE18BF08C017D10759F0699134
:10030000D601ED91FC910190F081E02DC601199587
:10031000892B79F7C501DF91CF911F910F91FF9044
:10032000EF90DF90CF90BF90AF900895FC01538D78
:10033000448D252F30E0842F90E0821B930B5417BF
:1003400010F0CF96089501970895FC01918D828D4C
:10035000981761F0A28DAE0FBF2FB11D5D968C91E5
:10036000928D9F5F9F73928F90E008958FEF9FEF24
:100370000895FC01918D828D981731F0828DE80FE0
:10038000F11D858D90E008958FEF9FEF0895FC019A
:10039000918D228D892F90E0805C9F4F821B910967
:1003A0008F73992708958BEE92E00E94C70121E098
:1003B000892B09F420E0822F0895FC01A48DA80F59
:1003C000B92FB11DA35ABF4F2C91848D90E0019697
:1003D0008F739927848FA689B7892C93A089B189B7
:1003E0008C91837080648C93938D848D981306C058
:1003F0000288F389E02D80818F7D80830895EF92BC
:10040000FF920F931F93CF93DF93EC0181E0888FCE
:100410009B8D8C8D98131AC0E889F989808185FF9E
:1004200015C09FB7F894EE89FF896083E889F98940
:1004300080818370806480839FBF81E090E0DF9142
:10044000CF911F910F91FF90EF900895F62E0B8D95
:1004500010E00F5F1F4F0F731127E02E8C8D8E1150
:100460000CC00FB607FCFACFE889F989808185FFB7
:10047000F5CFCE010E94DD01F1CFEB8DEC0FFD2F0A
:10048000F11DE35AFF4FF0829FB7F8940B8FEA8972
:10049000FB8980818062CFCFCF93DF93EC01888D81
:1004A0008823B9F0AA89BB89E889F9898C9185FDEF
:1004B00003C0808186FD0DC00FB607FCF7CF8C917D
:1004C00085FFF2CF808185FFEDCFCE010E94DD0157
:1004D000E9CFDF91CF91089580E090E0892B29F05A
:1004E0000E94D30181110E94000080E090E0892BDE
:1004F00049F080E090E0892B29F00E9400008111F2
:100500000E94000080E090E0892B49F080E090E0BC
:10051000892B29F00E94000081110E94000080E0D8
:1005200090E0892B49F080E090E0892B29F00E942F
:10053000000081110C9400000895282F30E0F9018B
:10054000EE5EFD4F9491F901E453FE4F44912A571A
:100550003E4FF9012491222309F435C0992311F16A
:1005600091509231F8F4E92FF0E08827E554FD4FDF
:100570008F4F0C940809EC02F002CD02E402E8026D
:10058000D202F302F902FD02030307030B03110376
:100590001503D20219031F032303809180008F7774
:1005A00080938000E22FF0E0EE0FFF1FE459FE4F32
:1005B000A591B4918FB7F894EC91611148C0409522
:1005C0004E234C938FBF0895809180008F7DE8CF9C
:1005D00080918000877FE4CF84B58F7784BDE2CFA0
:1005E00084B58F7DFBCF8091B0008F778093B00072
:1005F000D9CF8091B0008F7DF9CF809190008F7717
:1006000080939000CFCF809190008F7DF9CF809123
:100610009000877FF5CF8091A0008F778093A00016
:10062000C1CF8091A0008F7DF9CF8091A000877FFE
:10063000F5CF809120018F7780932001B3CF8091F7
:1006400020018F7DF9CF80912001877FF5CF4E2B40
:10065000B8CF3FB7F8948091710290917202A09147
:100660007302B091740226B5A89B05C02F3F19F004
:100670000196A11DB11D3FBFBA2FA92F982F882722
:10068000BC01CD01620F711D811D911D42E0660FFD
:10069000771F881F991F4A95D1F708952091490225
:1006A000260F3327331F21323105ECF42091C3028A
:1006B000FC0190E080E0243069F082E00895A09190
:1006C00049022191AC01475D5D4FA40FB52FB11DCB
:1006D0002C930196861798F380914902680F6093D6
:1006E000490280E0089581E008951092C30281E0FC
:1006F0008093C2021092BD0261E084E10E949D02DB
:1007000061E085E10E949D02E9EBF0E080818E7F4F
:10071000808380818D7F808388E48093B80085E426
:100720008093BC000895CF93DF9391E090932802CB
:100730008823B9F0C091B800D091BA008091BC0074
:100740008A7B8093BC0060E084E10E949D0260E0AF
:1007500085E10E949D020E947503D093BA00C09368
:10076000B800DF91CF9108950895E091E90280915A
:10077000EA02E81730F4F0E0E753FD4F808190E0A3
:1007800008958FEF9FEF08959091E9028091EA021A
:100790002FEF3FEF981748F4E92FF0E0E753FD4FB4
:1007A000208130E09F5F9093E902C9010895CF92C4
:1007B000DF92EF92FF920F931F93CF93DF937C0111
:1007C000CB018A0120917902222389F0EB016B0190
:1007D000C40ED51ECC15DD0569F06991D701ED91E8
:1007E000FC910190F081E02DC7011995F3CF642FA2
:1007F0000E944E03C801DF91CF911F910F91FF908E
:10080000EF90DF90CF900895CF93DF931F92CDB7F5
:10081000DEB76983209179022223F9F020919C02AE
:10082000203258F021E030E0FC013383228390E055
:1008300080E00F90DF91CF91089580917A02E82FA8
:10084000F0E0E558FD4F998190838F5F80937A02A5
:1008500080939C0281E090E0ECCF61E0CE010196B4
:100860000E944E03F7CF90E080E0089585ED8093DD
:10087000BC008091C5029091C602A091C702B091C0
:10088000C8020796A11DB11D23E0B695A7959795BF
:1008900087952A95D1F72091BC0024FD03C01092C2
:1008A000C30208954091C5025091C6026091C702EB
:1008B0007091C802452B462B472B69F30097A10581
:1008C000B10541F025E32A95F1F700000197A10950
:1008D000B109E1CF8091C4020C9493031F920F924F
:1008E0000FB60F9211240BB60F922F933F934F9395
:1008F0005F936F937F938F939F93AF93BF93EF9388
:10090000FF938BEE92E00E94DD01FF91EF91BF918A
:10091000AF919F918F917F916F915F914F913F9197
:100920002F910F900BBE0F900FBE0F901F90189538
:100930001F920F920FB60F9211240BB60F922F93A6
:100940008F939F93EF93FF93E091FB02F091FC0252
:100950008081E0910103F091020382FD1DC090812E
:10096000809104038F5F8F7320910503821741F0FC
:10097000E0910403F0E0E551FD4F958F809304036F
:10098000FF91EF919F918F912F910F900BBE0F9040
:100990000FBE0F901F9018958081F2CF1F920F927B
:1009A0000FB60F9211242F933F938F939F93AF9382
:1009B000BF9380916D0290916E02A0916F02B091F1
:1009C000700230916C0223E0230F2D3758F5019609
:1009D000A11DB11D20936C0280936D0290936E0255
:1009E000A0936F02B0937002809171029091720295
:1009F000A0917302B09174020196A11DB11D809364
:100A0000710290937202A0937302B0937402BF912B
:100A1000AF919F918F913F912F910F900FBE0F90AB
:100A20001F90189526E8230F0296A11DB11DD2CF65
:100A30001F920F920FB60F9211240BB60F922F93A5
:100A40003F934F935F936F937F938F939F93AF9356
:100A5000BF93EF93FF938091B900887F803609F4AC
:100A60004DC008F040C0883209F4A9C028F5803193
:100A700009F49DC0C8F4882309F4FBC0883009F448
:100A800096C0FF91EF91BF91AF919F918F917F9110
:100A90006F915F914F913F912F910F900BBE0F90EF
:100AA0000FBE0F901F901895883109F488C08032CE
:100AB00041F78093C10214C0803409F49DC040F412
:100AC0008033B9F38833E9F68093C10285ECB0C076
:100AD000803509F485C0883509F496C0883489F6D4
:100AE0000E943604CECF883909F48CC038F5883797
:100AF00029F050F4883611F0803719F683E080939E
:100B0000C30210926B0257C0883809F47BC0803949
:100B100019F0803809F0B5CF80916B02803208F06F
:100B200071C0E0916B0281E08E0F80936B02809127
:100B3000BB00F0E0E55BFD4F80833DC0803B39F0BA
:100B4000E0F4803A09F479C0883A09F09ACF84E059
:100B50008093C30210924A0210924902E0917702F8
:100B6000F091780219958091490281110FC081E0BE
:100B7000809349021092290209C0803C09F4A6CF53
:100B8000883C09F4A3CF883B09F07BCFE0914A026F
:100B900081E08E0F80934A02F0E0E75DFD4F808197
:100BA0008093BB0090914A028091490229C08091B4
:100BB000BE028093BB0085EC8093BC0062CF909115
:100BC000C0028091BF02981758F5E091C00281E001
:100BD0008E0F8093C002F0E0E356FD4F8081E9CF95
:100BE000E091C00281E08E0F8093C0028091BB0033
:100BF000F0E0E356FD4F80839091C0028091BF02E8
:100C00009817C8F285E8D8CFE091C00281E08E0F36
:100C10008093C0028091BB00F0E0E356FD4F8083DB
:100C20008091C20281115CCF81E08093BD0284EA91
:100C30008093BC001092C30224CF85EC8093BC004B
:100C40001092C30280916B02803230F4E0916B020B
:100C5000F0E0E55BFD4F108260916B0270E0E09187
:100C60007502F09176028BE492E0199510926B0276
:100C700008CF1092C10234CFEBEEF2E01382128261
:100C800088EE93E0A0E0B0E084839583A683B783E9
:100C900024E032E03183208325EC30E0358724875F
:100CA00024EC30E03787268720EC30E0318B208B36
:100CB00021EC30E0338B228B22EC30E0358B248B1F
:100CC00026EC30E0378B268B118E128E138E148E0D
:100CD000E8E8F3E01382128284839583A683B783C6
:100CE00086E192E0918380830895789484B5826050
:100CF00084BD84B5816084BD85B5826085BD85B5C0
:100D0000816085BD80916E00816080936E0010923D
:100D100081008091810082608093810080918100B8
:100D20008160809381008091800081608093800049
:100D30008091B10084608093B1008091B0008160A7
:100D40008093B000809191008260809391008091A7
:100D500091008160809391008091900081608093E8
:100D600090008091A10082608093A1008091A100F9
:100D700081608093A1008091A00081608093A00099
:100D80008091210182608093210180912101816005
:100D900080932101809120018160809320018091C6
:100DA0007A00846080937A0080917A0082608093D8
:100DB0007A0080917A00816080937A0080917A0035
:100DC000806880937A001092C1001092E90210921C
:100DD000EA020E94750387E691E09093780280937F
:100DE000770288E691E09093760280937502E09115
:100DF000FB02F091FC0282E08083E091F702F09127
:100E0000F8021082E091F902F091FA028FEC8083EF
:100E100010920303E091FF02F091000386E08083CB
:100E2000E091FD02F091FE02808180618083E0917B
:100E3000FD02F091FE02808188608083E091FD02D6
:100E4000F091FE02808180688083E091FD02F09144
:100E5000FE0280818F7D808311E092E0392E0FEFBA
:100E600025EE922E35EC832E4BE8A42EBB24B394B2
:100E700053E0252E1093790225EF20939B021092C8
:100E80007A0210929C0265E088E893E00E940404D4
:100E9000C0919C02C13208F08CC00E9429036B01F2
:100EA0007C018091C30281115FC03092C302109314
:100EB000C2020093C1021092C002C093BF02ABE70E
:100EC000B2E0EDE9F2E0C813E7C01092BE028091F3
:100ED000BE028A6E8093BE028091BD02813009F00D
:100EE000DFC01092BD020E9429036B017C0180913A
:100EF000BE028093BB008091C5029091C602A09172
:100F0000C702B091C802892B8A2B8B2B99F00E94C3
:100F100029034090C5025090C6026090C7027090AD
:100F2000C8026C197D098E099F0946165706680686
:100F30007906D8F18091BC0083FDD9CF8092BC00A6
:100F40000E9429036B017C018091C302823009F465
:100F5000AAC08091C1028F3F61F18091C1028032AD
:100F600041F18091C10225C08091C5029091C602D5
:100F7000A091C702B091C802892B8A2B8B2B09F450
:100F800090CF0E9429034090C5025090C602609005
:100F9000C7027090C8026C197D098E099F09461618
:100FA00057066806790608F07CCF8091C4020E943B
:100FB000930310927A0210929C0210927902C5015A
:100FC0000197F1F70E9429036B017C018091C30214
:100FD00081118BC01093C3021093C2020093C1020F
:100FE0001092C0022092BF021093BE028091BE02F6
:100FF0008A6E8093BE028091BD02813009F0B3C039
:101000001092BD020E9429036B017C018091BE02F7
:101010008093BB008091C5029091C602A091C70247
:10102000B091C802892B8A2B8B2BA1F00E94290337
:101030004090C5025090C6026090C7027090C802EE
:101040006C197D098E099F094616570668067906B0
:1010500008F46CC08091BC0083FDD8CF8092BC00A6
:101060000E9429036B017C018091C302813009F445
:101070007DC08091C002C4E0843010F4C091C002F1
:10108000ADE9B2E0E9ECF2E080E08C1709F453C07E
:101090009D9191938F5FF9CF9D9191938F5F13CF26
:1010A0009092BC004DCF8091C5029091C602A09154
:1010B000C702B091C802892B8A2B8B2B09F444CF2D
:1010C0000E9429034090C5025090C6026090C7025A
:1010D0007090C8026C197D098E099F094616570643
:1010E0006806790608F030CF60CF8091C5029091F4
:1010F000C602A091C702B091C802892B8A2B8B2B04
:1011000009F464CF0E9429034090C5025090C602A2
:101110006090C7027090C8026C197D098E099F0902
:10112000461657066806790608F050CF8091C4022B
:101130000E949303C0E01092E902C093EA02D0E05B
:101140008091E9029E01281B3109C9011816190670
:101150007CF588E893E00E94C403682F8BEE92E050
:101160000E94FF01EDCF9092BC007ACF8091C50222
:101170009091C602A091C702B091C802892B8A2B18
:101180008B2B09F471CF0E9429034090C502509027
:10119000C6026090C7027090C8026C197D098E0962
:1011A0009F09461657066806790608F05DCFBECF40
:1011B00042E050E064E272E08BEE92E00E9469014E
:1011C0000E9429032B013C0184EFC82EDD24D39417
:1011D000E12CF12C0E9429036419750986099709ED
:1011E000683E734081059105A8F331E0C31AD10828
:1011F000E108F10888EE480E83E0581E611C711C5E
:10120000C114D104E104F10429F70E946C0232CE2A
:10121000EE0FFF1F881F8BBF0790F691E02D1994EA
:04122000F894FFCF70
:1012240000000000FF01690196014C02C701A501FD
:10123400B901000000000404D7033304B4036001BF
:08124400C403B5030D0A00000C
:00000001FF
